:100000000C94A3010C94C0010C94C0010C94C00189
:100010000C94E2010C94C0010C94C0010C94C0013A
:100020000C94C0010C94C0010C94C0010C94C0014C
:100030000C94C0010C94E8020C94C0010C94C00113
:100040000C94C0010C94C0010C94C0010C94C0012C
:100050000C94C0010C94C0010C94C0010C94C0011C
:100060000C94C0010C94C0010C94C0010C94C0010C
:10007000000000000000005F000000030003001407
:100080003E143E14242A7F2A1243330866613649FF
:100090005522500005030000001C224100004122AF
:1000A0001C0014083E081408083E080800503000E0
:1000B000000808080808006060000020100804021A
:1000C0003E5149453E0004027F00426151494622AB
:1000D000414949361814127F1027454545393E4994
:1000E00049493201017109073649494936264949CA
:1000F000493E003636000000563600000814224102
:1001000000141414141400412214080201510906A9
:100110003E4159555E7E0909097E7F494949363E6F
:10012000414141227F4141413E7F494949417F0947
:100130000909013E4141493A7F0808087F00417F93
:100140004100304040403F7F081422417F40404002
:10015000407F020C027F7F0204087F3E4141413E06
:100160007F090909061E2121215E7F0909097626DA
:100170004949493201017F01013F4040403F1F2072
:1001800040201F7F2010207F41221C224107087041
:1001900008076151494543007F41000002040810EF
:1001A000200000417F000402010204404040404022
:1001B000000102040020545454787F4444443838E9
:1001C00044444444384444447F3854545418040448
:1001D0007E0505085454543C7F0804047800447D8F
:1001E00040002040443D007F1028440000417F40F3
:1001F000007C047804787C0804047838444444384B
:100200007C14141408081414147C007C080404489A
:100210005454542004043F44443C4040207C1C205F
:1002200040201C3C4030403C44281028440C505096
:10023000503C4464544C44000836414100007F0067
:10024000004141360800020102040200407A10F326
:100250005A00A0724E18090010A5D4E80000E876F4
:1002600048170000E40B54020000CA9A3B0000004B
:10027000E1F505000080969800000040420F000064
:1002800000A08601000000102700000000E8030025
:100290000000006400000000000A000000000001EF
:1002A00000000000002C76D888DC674F0823DFC1EF
:1002B000DFAE59E1B1B796E5E3E453C63AE65199AA
:1002C0007696E8E6C28426EB898C9B62ED407C6FD3
:1002D000FCEFBC9C9F40F2BAA56FA5F490055A2A8A
:1002E000F75C936B6CF9676DC11BFCE0E40D47FE96
:1002F000F520E6B500D0ED902E030094357705008B
:1003000080841E080000204E0A000000C80C333311
:1003100033330F986E12831141EF8D2114893BE620
:100320005516CFFEE6DB18D1844B381BF77C1D90A9
:100330001DA4BBE424203284725E228100C9F12412
:10034000ECA1E53D270011241FBECFEFD0E1DEBFB9
:10035000CDBF11E0A0E0B1E0ECE8F5E102C005900E
:100360000D92A236B107D9F721E0A2E6B1E001C0B3
:100370001D92AE3DB207E1F70E9435020C94C40A0B
:100380000C940000DC01129670E02D913D91672FD6
:10039000E62FEE0FFF0BE80FF91F40815181241764
:1003A000350720F453834283615090F7FC0142E00B
:1003B0006402E00DF11D1124338322837F5F7731C6
:1003C00021F708951F920F920FB60F9211242F93C9
:1003D0003F934F935F936F937F938F939F93AF93CD
:1003E000BF93EF93FF930E94320580916301909138
:1003F000640193709093D5018093D4018091D401CE
:100400009091D5010E94C803FF91EF91BF91AF91E8
:100410009F918F917F916F915F914F913F912F911C
:100420000F900FBE0F901F90189560E082E00E9421
:10043000AE0486E091E00E94FF0461E082E00E9449
:10044000AE048DE091E00E94FF0462E082E00E9431
:10045000AE0484E191E00E94FF0464E082E00E9427
:10046000AE048BE191E00C94FF042FEF83ED90E359
:10047000215080409040E1F700C000000E948404B9
:100480000E940B050E9494030E94C1038091D40135
:100490009091D5010E94C80381B1806C81B91092FE
:1004A00069001DBA81E0809368008CE080936B0046
:1004B0000E94150282EC90E090938900809388005E
:1004C00010928000809181008860809381008091EB
:1004D0006F00826080936F008091810085608093BF
:1004E00081007894FFCF0F931F9387E090E00E94E4
:1004F0001D079093D3018093D20160E084E40E94B1
:10050000AE046091660170916701809168019091DD
:1005100069010091D2011091D30123E046E00E94CD
:10052000FC060E94FF0485E291E00E94FF0461E066
:1005300084E40E94AE046091D6017091D70180914D
:10054000D8019091D9010091D2011091D30123E0FB
:1005500046E00E94FC060E94FF0485E291E00E94B2
:10056000FF0462E084E40E94AE0460919A017091FD
:100570009B0180919C0190919D010091D20110916D
:10058000D30123E046E00E94FC060E94FF0485E2BE
:1005900091E00E94FF0464E08AE40E94AE0480912E
:1005A0006301909164016091D2017091D3014AE09E
:1005B0000E9444080E94FF0485E291E00E94FF042B
:1005C0008091D2019091D3011F910F910C94B507A6
:1005D0001F920F920FB60F9211242F933F934F93B8
:1005E0005F936F937F938F939F93AF93BF93CF93BB
:1005F000DF93EF93FF9380916201883110F5179A92
:10060000C0916201D0E080E00E94A203FE01EE0FE3
:10061000FF1FEE55FE4F91838083C0916201D0E0B1
:1006200081E00E94A203FE01EE0FFF1FE659FE4F7C
:1006300091838083809162018F5F8093620117981C
:1006400060C0169A8AE691E00E94C20182EA91E0B7
:100650000E94C2016091BA017091BB0180E090E0FC
:100660000E940B0620E038E440E850E40E9499061E
:100670002EEA37EC4AEF52E40E94A305609366012C
:100680007093670180936801909369016091820182
:100690007091830180E090E00E940B0620E038E436
:1006A00040E850E40E94990620E030E04AE754E434
:1006B0000E94A3056093D6017093D7018093D8015F
:1006C0009093D901609166017091670180916801F2
:1006D000909169012091D6013091D7014091D801C4
:1006E0005091D9010E94990660939A0170939B01E1
:1006F00080939C0190939D010E947302109262016D
:100700001698FF91EF91DF91CF91BF91AF919F919B
:100710008F917F916F915F914F913F912F910F90AA
:100720000FBE0F901F9018950E945B05239A2B9A7D
:1007300080E00E94870580E80E9461058CB5806595
:100740008CBD0895CF93C82F2D982B9881E00E94DF
:100750009D0520E1C29FC00111248073806C0E941E
:100760009D05C82F80E00E949D052B9A2D98C3708F
:100770002C2F30E0322F2227A901482BCA01CF911C
:100780000895259A279A219A209A299A289A0895B5
:10079000CF93DF93EC01CC0FDD1FCC0FDD1FD063B7
:1007A00028988D2F0E949D058C2F0E949D05289AC8
:1007B0002998299ADF91CF91089517B85D9A5E9A8A
:1007C0008EE000008150E9F786B15E9808958111AE
:1007D00003C05A985B9A0895813019F45B985A9A2D
:1007E0000895823011F45A985B98089517B85D9A6D
:1007F0005C980E94E7030E94DD03807B089581E0FE
:100800000E94F6038079D9F780E00E94F603807990
:10081000D9F70895CF93C82F823019F4CF910C9453
:10082000FF038C2F0E94F6038079D9F7CF910895AA
:100830008FEF87B918B88AB18E678AB98BB1817882
:100840008BB95A9A5B9A5E9859988FE493EC01970A
:10085000F1F700C00000599A0C94FF031F93CF9347
:10086000DF9300D0CDB7DEB7182F4A8369830E948B
:10087000E70369814A81662311F05C9A01C05C98A4
:100880008FEF87B95D9848B996E100009150E9F77C
:100890005E9A9EE000009150E9F75E98812F0F90DC
:1008A0000F90DF91CF911F910C940A04482F4F7342
:1008B000406460E082958695869583700C942E0442
:1008C000462F4770486B60E00C942E04CF93DF9363
:1008D000D82F0E94600480E00E945604C0E440E0EB
:1008E00061E08D2F0E942E04C150C9F7DF91CF9196
:1008F0000895CF93C0E06C2F82E00E946604CF5F22
:10090000C830C9F7CF9108950E9418044EE360E003
:1009100082E00E942E048FE493EC0197F1F700C06F
:1009200000000E94FF034FE360E082E00E942E047B
:100930000E94FF0340EC60E082E00E942E0480E011
:100940000E940A0481E00E940A040E94790487EA56
:1009500091E60197F1F700C000000895CF93DF936F
:10096000D62F87FD80E0C82FC295C695C695C37067
:10097000482F4F73406460E08C2F0E942E044D2F4F
:100980004770486B60E08C2FDF91CF910C942E0460
:1009900090E0809745E0489F9001499F300D1124D9
:1009A00080E090E05FEF20593F4F5C9A57B95D9827
:1009B000F901E80FF91FE491E8B946E10000415060
:1009C000E9F75E9A4EE000004150E9F75E9846E094
:1009D0004A95F1F700C001968530910531F75C9A90
:1009E0008FEF87B95D9818B886E100008150E9F76C
:1009F0005E9A8EE000008150E9F75E980895CF93EB
:100A0000DF93EC018991882319F00E94C804FACF82
:100A1000DF91CF91089581B1837F81B982B1837FC6
:100A200082B9089530B120B1E091650132FB882789
:100A300080F990E0880F991F23FB992790F9892B63
:100A4000EF7094E0E99FF0011124E80FF11D87FD9C
:100A5000FA95EA5BFE4F8081809365018091650184
:100A6000807308950E941205803171F480916301B2
:100A7000909164018F3F23E09207C1F08091630160
:100A800090916401019612C08032A1F480916301BB
:100A900090916401892B29F41092640110926301F2
:100AA000089580916301909164010197909364018E
:100AB0008093630108952698259A279A249A2C9A60
:100AC00008959CB59C7F9CBD883089F028F48230C5
:100AD00051F08430D9F017C0803279F0803481F041
:100AE000803189F407C08DB581608DBD08958DB5C5
:100AF00081608DBD8CB5816008C08DB581608DBD74
:100B00008CB5826002C08CB583608CBD0895843042
:100B100008F080E09CB580FF02C0946001C09B7F1C
:100B20009CBD823028F08CB588608CBD2F9A0895CA
:100B30008CB5877F8CBD2F9808958EBD0DB407FEB0
:100B4000FDCF8EB508950CD0BAC0B2D040F0A9D078
:100B500030F021F45F3F19F09BC05111E4C09EC0FA
:100B6000BFD098F39923C9F35523B1F3951B550BC7
:100B7000BB27AA2762177307840738F09F5F5F4F70
:100B8000220F331F441FAA1FA9F333D00E2E3AF0B1
:100B9000E0E830D091505040E695001CCAF729D0CB
:100BA000FE2F27D0660F771F881FBB1F261737071A
:100BB0004807AB07B0E809F0BB0B802DBF01FF274A
:100BC00093585F4F2AF09E3F510568F061C0ABC05B
:100BD0005F3FECF3983EDCF3869577956795B79584
:100BE000F7959F5FC9F7880F911D9695879597F99F
:100BF0000895E1E0660F771F881FBB1F6217730718
:100C00008407BA0720F0621B730B840BBA0BEE1F2C
:100C100088F7E0950895E89409C097FB3EF4909515
:100C20008095709561957F4F8F4F9F4F9923A9F0C5
:100C3000F92F96E9BB279395F69587957795679554
:100C4000B795F111F8CFFAF4BB0F11F460FF1BC098
:100C50006F5F7F4F8F4F9F4F16C0882311F096E92B
:100C600011C0772321F09EE8872F762F05C06623D9
:100C700071F096E8862F70E060E02AF09A95660F92
:100C8000771F881FDAF7880F9695879597F908954B
:100C900097F99F6780E870E060E008959FEF80EC2F
:100CA000089500240A9416161706180609060895D2
:100CB00000240A9412161306140605060895092E38
:100CC0000394000C11F4882352F0BB0F40F4BF2BA7
:100CD00011F460FF04C06F5F7F4F8F4F9F4F0895E7
:100CE00057FD9058440F551F59F05F3F71F04795DD
:100CF000880F97FB991F61F09F3F79F087950895C2
:100D0000121613061406551FF2CF4695F1DF08C0E0
:100D1000161617061806991FF1CF869571056105FD
:100D200008940895E894BB2766277727CB0197F9A5
:100D300008950BD0C4CFB5DF28F0BADF18F09523A3
:100D400009F0A6CFABCF1124EECFCADFA0F3959F59
:100D5000D1F3950F50E0551F629FF001729FBB27A2
:100D6000F00DB11D639FAA27F00DB11DAA1F649F4E
:100D70006627B00DA11D661F829F2227B00DA11D01
:100D8000621F739FB00DA11D621F839FA00D611D87
:100D9000221F749F3327A00D611D231F849F600DA8
:100DA000211D822F762F6A2F11249F5750408AF0E1
:100DB000E1F088234AF0EE0FFF1FBB1F661F771F6D
:100DC000881F91505040A9F79E3F510570F060CFA9
:100DD000AACF5F3FECF3983EDCF386957795679555
:100DE000B795F795E7959F5FC1F7FE2B880F911D8B
:100DF0009695879597F90895EF920F931F93CF9348
:100E0000DF93E80147FF02C034E101C034E0E42F82
:100E1000FF27E7FDF095F7FF03C0F195E195F10994
:100E2000E32E022F2E2FAE010E945E08CE01DF912D
:100E3000CF911F910F91EF900895CF93DF93823060
:100E4000910510F482E090E0E091DC01F091DD0189
:100E500020E030E0A0E0B0E0309739F140815181EE
:100E600048175907B8F04817590771F482819381E0
:100E7000109729F013969C938E9312972CC0909301
:100E8000DD018093DC0127C02115310531F04217C7
:100E9000530718F0A901DB0101C0EF019A01BD0160
:100EA000DF010280F381E02DD7CF21153105F9F064
:100EB000281B390B2430310580F48A819B81611510
:100EC000710521F0FB019383828304C09093DD01BF
:100ED0008093DC01FE01329644C0FE01E20FF31F55
:100EE0008193919322503109398328833AC020910C
:100EF000DA013091DB01232B41F420910201309182
:100F000003013093DB012093DA012091000130913D
:100F100001012115310541F42DB73EB7409104017F
:100F200050910501241B350BE091DA01F091DB01B2
:100F3000E217F307A0F42E1B3F0B2817390778F0B0
:100F4000AC014E5F5F4F2417350748F04E0F5F1F0F
:100F50005093DB014093DA018193919302C0E0E06A
:100F6000F0E0CF01DF91CF910895CF93DF93009709
:100F700009F487C0FC01329713821282C091DC0110
:100F8000D091DD01209781F420813181280F391F14
:100F90008091DA019091DB018217930779F5F09344
:100FA000DB01E093DA016DC0DE0120E030E0AE1736
:100FB000BF0750F412964D915C9113979D01411516
:100FC000510509F1DA01F3CFB383A2834081518146
:100FD000840F951F8A179B0771F48D919C9111972F
:100FE000840F951F02969183808312968D919C9118
:100FF0001397938382832115310529F4F093DD0142
:10100000E093DC013EC0D9011396FC93EE93129756
:101010004D915D91A40FB51FEA17FB0779F480810C
:101020009181840F951F0296D90111969C938E93FE
:101030008281938113969C938E931297E0E0F0E067
:101040008A819B81009719F0FE01EC01F9CFCE0156
:10105000029628813981820F931F2091DA01309105
:10106000DB012817390769F4309729F41092DD0164
:101070001092DC0102C013821282D093DB01C09374
:10108000DA01DF91CF910895BB27FB015527AA27ED
:10109000880F991FAA1FA41710F0A41B8395505105
:1010A000B9F7A05DAA3308F0A95DA193009779F77D
:1010B000B111B1931192CB010C94B40A6F927F924B
:1010C0009F92AF92BF92CF92DF92EF92FF920F93D7
:1010D0001F93CF93DF93CDB7DEB729970FB6F89460
:1010E000DEBF0FBECDBF6A01B22E102F0C3320F42D
:1010F000FF24F394F00E02C04CE3F42E0F2D27E0F2
:10110000AE014F5F5F4F0E94DC097981272F297064
:10111000213031F0E1FC06C0E0FC06C060E005C013
:101120006DE203C06BE201C060E2AE2DA07173FFFF
:1011300036C0662311F084E001C083E08B1510F403
:10114000B81A01C0B12CA1110BC0F6018B2D90E291
:10115000882319F091938150FBCFCB0CD11CB12C7B
:10116000662331F0F601608396012F5F3F4F6901DE
:10117000C6010396E2FE05C02EE4F601208331E4A9
:1011800004C02EE6F601208331E631832283FC0180
:101190002B2D30E22223F1F131932150FBCF72FF4E
:1011A00040C0662311F084E001C083E08B1510F489
:1011B000B81A01C0B12CA1110BC0F6018B2D90E221
:1011C000882319F091938150FBCFCB0CD11CB12C0B
:1011D000662331F0F601608396012F5F3F4F69016E
:1011E000C6010396E2FE07C029E4F60120832EE43F
:1011F000218326E406C029E6F60120832EE621831A
:1012000026E62283FC012B2D30E2222319F03193B4
:101210002150FBCFFC01EB0DF11D10828EEF9FEFF3
:10122000B7C0B1E0611101C0B0E04B2F50E018161B
:10123000190624F49C012F5F3F4F02C021E030E0EB
:10124000240F351F112329F0412F50E04F5F5F4FCE
:1012500002C040E050E0420F531F2B2D30E04217F8
:10126000530714F4B41A01C0B12C2E2D287159F46F
:10127000F6012B2D30E2222319F031932150FBCFC0
:10128000CB0CD11CB12CBB2331F0F601608396014D
:101290002F5F3F4F6901A1110BC0F6012B2D30E3E9
:1012A000222319F031932150FBCFCB0CD11CB12C50
:1012B000F80E0A81372F3071A32E74FF03C001335B
:1012C00009F4FA941F142CF42F2D293018F028E07B
:1012D00001C021E0682F392F97FF02C060E030E0A5
:1012E000462F532F612C712C3EE2932EBC01621BC2
:1012F00071099B01DC01A41BB50BE1E0F0E0EC0FF0
:10130000FD1FAE0FBF1FE12EF12CF194E194F10807
:101310004F3FFFEF5F0731F4F6019082B6016F5F38
:101320007F4F6B01841795074CF02417350734F471
:10133000BD01660D771DFB01118101C010E3415015
:101340005109FFEF6F1A7F0AB6016F5F7F4F4E158D
:101350005F0524F0F60110836B01DACF48175907B7
:1013600039F4063320F4053319F4A11001C011E358
:10137000F6011083FB018B2D90E2882319F09193E5
:101380008150FBCFFB01EB0DF11D108280E090E05E
:1013900029960FB6F894DEBF0FBECDBFDF91CF9177
:1013A0001F910F91FF90EF90DF90CF90BF90AF9083
:1013B0009F907F906F900895283008F027E03327A2
:1013C000DA01990F311D87FD916000966105710565
:1013D00039F432602E5F3D9330E32A95E1F70895AA
:1013E0009F3F30F080387105610509F03C5F3C5F3C
:1013F0003D93913008F08068911DDF93CF931F9348
:101400000F93FF92EF92192F987F9695E92F96955B
:101410009695E90FFF27EB55FD4F99273327EE24CB
:10142000FF24A701E70105900894079428F4360FDC
:10143000E71EF81E491F511D660F771F881F991F51
:101440000694A1F70590079428F4E70EF81E491FAB
:10145000561FC11D770F881F991F661F0694A1F79D
:101460000590079428F4F80E491F561FC71FD11D79
:10147000880F991F661F771F0694A1F705900794A0
:1014800020F4490F561FC71FD81F990F661F771FDB
:10149000881F0694A9F784911095177041F0D6958E
:1014A000C79557954795F794E7941A95C1F7EBE4DC
:1014B000F2E068941590159135916591959105909C
:1014C0007FE27395E118F10A430B560BC90BD00963
:1014D000C0F7E10CF11E431F561FC91FD01D7EF43B
:1014E000703311F48A95E6CFE894015030F0080F7C
:1014F0000AF40027021708F4202F2395022F7A33CD
:1015000028F079E37D932A95E9F710C07D932A9519
:1015100089F6069497956795379517951794E1186E
:10152000F10A430B560BC90BD00998F023957E9115
:1015300073957A3308F070E37C932013B8F77E91AB
:1015400070617D9330F0839571E37D9370E32A950C
:10155000E1F71124EF90FF900F911F91CF91DF9150
:10156000992787FD90950895DC01FC01672F719103
:101570007723E1F7329704C07C916D937083629179
:0C158000AE17BF07C8F30895F894FFCF22
:10158C000000DE01200056202D20563A0049202D67
:10159C0020413A0050202D20573A004441432077F7
:1015AC006F72643A00202020000A0D00494E444519
:1015BC005800090056626174745F5600496F5F41B0
:1015CC0000506F5F5700000204000300011003027B
:1015DC0000000302010006000400060500200605B9
:0215EC000400F9
:00000001FF
